:100000000C942A000C943C000C943C000C943C0092
:100010000C943C000C943C000C943C000C943C0070
:100020000C943C000C943C000C943C000C943C0060
:100030000C943C000C943C000C943C000C943C0050
:100040000C943C000C943C000C943C000C943C0040
:100050000C943C0011241FBECFE5D8E0DEBFCDBF1D
:1000600020E0A0E6B0E001C01D92A437B207E1F79E
:100070000E94E4010C9446050C9400008FE78ABBB3
:100080008FE087BB90EF94BB99E09BBB90E198BB5E
:1000900085BB089598B3907F98BB98B38F70892BD8
:1000A00088BB0895DE9A0895DE9808950F931F93F4
:1000B000CF93DF93DC018BB3867F8BBBB7FF45C04B
:1000C000DA98B195A195B10991E077FF41C0DD9A29
:1000D00071956195710983E010926D0010926C002A
:1000E0001092610010926000E1E0F0E0EF0102C0C8
:1000F000CC0FDD1F9A95E2F78F0102C0000F111F90
:100100008A95E2F791E021E0B49925C080916C00D6
:1001100090916D00DA9B71C09093630080936200B0
:100120008091600090916100DD9B03C09195819565
:10013000910990936500809364008BB389608BBBB9
:10014000DF91CF911F910F910895DA9A90E0BDCF82
:10015000DD9882E0C1CF222309F453C020916C00C6
:1001600030916D002A173B073CF443B350E04C2319
:100170005D2321E0452B09F420E0992379F080915B
:10018000600090916100861797073CF443B350E0FC
:100190004023512391E0452B09F490E02111D99A95
:1001A0009111DC9AEFECF7E03197F1F700C0000015
:1001B000222359F0D99840916C0050916D004F5F07
:1001C0005F4F50936D0040936C00992359F0DC9879
:1001D00040916000509161004F5F5F4F509361000C
:1001E00040936000EFECF7E03197F1F700C00000BA
:1001F00021118ACF911188CF89CF9195819591094D
:100200008BCF9111BCCF292FCDCF60EF78ED80EF50
:1002100098ED0E94560010926B0010926A001092A6
:100220007300109272000895209172003091730053
:10023000621B730B20916A0030916B00821B930B41
:100240000E94560080916A0090916B00209162009C
:1002500030916300820F931F90936B0080936A002C
:10026000809172009091730020916400309165003C
:10027000820F931F90937300809372000895CF9222
:10028000DF92EF92FF92CF93DF93EC01072E000CE9
:10029000880B990B0E944D042091660030916700F5
:1002A00040916800509169000E94D9040E94150491
:1002B0006B017C01BE01DD0F880B990B0E944D0480
:1002C00020916E0030916F0040917000509171004C
:1002D0000E94D9040E941504DC01CB01B601DF9114
:1002E000CF91FF90EF90DF90CF900C945600CF927B
:1002F000DF92EF92FF92CF93DF93EC01072E000C79
:10030000880B990B0E944D04209166003091670084
:1003100040916800509169000E94D9040E94150420
:100320006B017C01BE01DD0F880B990B0E944D040F
:1003300020916E0030916F004091700050917100DB
:100340000E94D9040E941504DC01CB01B601DF91A3
:10035000CF91FF90EF90DF90CF900C94140110BCE0
:1003600087E689B988E18AB986E880BD08955D9BF2
:10037000FECF8CB908955F9BFECF8CB108950F938B
:100380001F93CF93DF938C01EB010E94BB0190E0A0
:10039000F801918380830E94BB01F80120813181A3
:1003A000382B318320830E94BB0190E0998388839E
:1003B0000E94BB0128813981382B39832883DF9142
:1003C000CF911F910F910895CF93DF93CDB7DEB7F3
:1003D000A5970FB6F894DEBF0FBECDBF0E943E00BA
:1003E0000E94AF011DA211E0812F0E944A0011302E
:1003F00009F437C11230C1F710926E0010926F00ED
:1004000010927000109271001092660010926700B6
:1004100010926800109269000E94050160E070E08F
:1004200080E197E20E94560000916C0010916D00EF
:1004300060E070E080EF98ED0E94560080916C00C3
:1004400090916D00080F191F0E94050160E177E28D
:1004500080E090E00E945600E0906000F090610023
:1004600060EF78ED80E090E00E945600809160009F
:10047000909161008E0D9F1DA80117FF02C0495F7A
:100480005F4F23E0559547952A95E1F75A8F498F9D
:10049000BC0197FF02C0695F7F4FB3E07595679518
:1004A000BA95E1F77A8B698B17FF02C00F5F1F4F78
:1004B000159507959801220F331F020F131F17FF81
:1004C00002C00D5F1F4F15950795159507951C8F59
:1004D0000B8F7C8B6B8B5E8F4D8F97FD0196959567
:1004E00087959C01220F331F820F931F97FD039660
:1004F00095958795959587959E8B8D8B18A30F8FD6
:10050000988F8F8B1E0191E1290E311CFE01799687
:10051000FCA3EBA36E01F9E0CF0ED11C8E010F5F9F
:100520001F4F8BA19CA19AA389A30E940501F101F1
:10053000E190F1901F01EBA1FCA1A190B190FCA36F
:10054000EBA3B701C5010E945600B801C6010E9485
:10055000BF01B501BB0C880B990B0E944D042B0108
:100560003C01F60160817181F2E0CF0ED11C072EB3
:10057000000C880B990B0E944D049B01AC01C30138
:10058000B2010E94A30320916E0030916F00409150
:100590007000509171000E9437032B013C01609361
:1005A0006E0070936F008093700090937100B7019C
:1005B000FF0C880B990B0E944D044B015C01F80164
:1005C000608171810E5F1F4F072E000C880B990B05
:1005D0000E944D049B01AC01C501B4010E94A3031C
:1005E0002091660030916700409168005091690049
:1005F0000E9437034B015C016093660070936700B3
:10060000809368009093690089A19AA12816390601
:1006100009F08BCF20E030E040E85EE3C301B20197
:100620000E94D90460936E0070936F0080937000F5
:100630009093710020E030E040E85EE3C501B40132
:100640000E94D904609366007093670080936800ED
:10065000909369000E94050113E0C6CE0E94BB0181
:100660008DA38DA18130D1F712E0BECE5058BB27AB
:10067000AA270E944E030C949F040E94910438F014
:100680000E94980420F039F49F3F19F426F40C944A
:100690008E040EF4E095E7FB0C948804E92F0E9489
:1006A000B00458F3BA17620773078407950720F060
:1006B00079F4A6F50C94D2040EF4E0950B2EBA2F23
:1006C000A02D0B01B90190010C01CA01A001112458
:1006D000FF27591B99F0593F50F4503E68F11A1604
:1006E000F040A22F232F342F4427585FF3CF469595
:1006F00037952795A795F0405395C9F77EF41F16B7
:10070000BA0B620B730B840BBAF09150A1F0FF0F80
:10071000BB1F661F771F881FC2F70EC0BA0F621F6C
:10072000731F841F48F4879577956795B795F7955C
:100730009E3F08F0B0CF9395880F08F09927EE0FF1
:100740009795879508950E94B7030C949F040E9483
:10075000980458F00E94910440F029F45F3F29F07A
:100760000C94880451110C94D3040C948E040E94B0
:10077000B00468F39923B1F3552391F3951B550BFE
:10078000BB27AA2762177307840738F09F5F5F4F64
:10079000220F331F441FAA1FA9F335D00E2E3AF0A3
:1007A000E0E832D091505040E695001CCAF72BD0BB
:1007B000FE2F29D0660F771F881FBB1F261737070C
:1007C0004807AB07B0E809F0BB0B802DBF01FF273E
:1007D00093585F4F3AF09E3F510578F00C9488048F
:1007E0000C94D3045F3FE4F3983ED4F38695779559
:1007F0006795B795F7959F5FC9F7880F911D9695F7
:10080000879597F90895E1E0660F771F881FBB1F52
:10081000621773078407BA0720F0621B730B840BFF
:10082000BA0BEE1F88F7E09508950E941C046894A7
:10083000B1110C94D30408950E94B80488F09F5716
:1008400098F0B92F9927B751B0F0E1F0660F771FF4
:10085000881F991F1AF0BA95C9F714C0B13091F0EA
:100860000E94D204B1E008950C94D204672F782F2F
:100870008827B85F39F0B93FCCF3869577956795AF
:10088000B395D9F73EF490958095709561957F4F1B
:100890008F4F9F4F0895E89409C097FB3EF49095C1
:1008A0008095709561957F4F8F4F9F4F9923A9F049
:1008B000F92F96E9BB279395F695879577956795D8
:1008C000B795F111F8CFFAF4BB0F11F460FF1BC01C
:1008D0006F5F7F4F8F4F9F4F16C0882311F096E9AF
:1008E00011C0772321F09EE8872F762F05C066235D
:1008F00071F096E8862F70E060E02AF09A95660F16
:10090000771F881FDAF7880F9695879597F90895CE
:1009100097F99F6780E870E060E008959FEF80ECB2
:10092000089500240A941616170618060906089555
:1009300000240A9412161306140605060895092EBB
:100940000394000C11F4882352F0BB0F40F4BF2B2A
:1009500011F460FF04C06F5F7F4F8F4F9F4F08956A
:1009600057FD9058440F551F59F05F3F71F0479560
:10097000880F97FB991F61F09F3F79F08795089545
:10098000121613061406551FF2CF4695F1DF08C064
:10099000161617061806991FF1CF86957105610581
:1009A00008940895E894BB2766277727CB0197F929
:1009B00008950E94EC040C949F040E94910438F066
:1009C0000E94980420F0952311F00C9488040C9454
:1009D0008E0411240C94D3040E94B00470F3959FEC
:1009E000C1F3950F50E0551F629FF001729FBB2726
:1009F000F00DB11D639FAA27F00DB11DAA1F649FC2
:100A00006627B00DA11D661F829F2227B00DA11D74
:100A1000621F739FB00DA11D621F839FA00D611DFA
:100A2000221F749F3327A00D611D231F849F600D1B
:100A3000211D822F762F6A2F11249F5750409AF044
:100A4000F1F088234AF0EE0FFF1FBB1F661F771FD0
:100A5000881F91505040A9F79E3F510580F00C949B
:100A600088040C94D3045F3FE4F3983ED4F3869556
:100A700077956795B795F795E7959F5FC1F7FE2B3B
:100A8000880F911D9695879597F90895F894FFCF53
:00000001FF
